:020000040800F2
:10000000E0AD002061020008218F0008257700087C
:100010001D8F0008BB1C00084DD400080000000024
:10002000000000000000000000000000A101000826
:100030009F21000800000000FD0100085F9D0008EE
:100040007B0200087B0200087B0200087B0200089C
:100050007B0200087B020008A12100087B02000847
:100060007B020008AB210008B52100087B020008D4
:100070007B0200087B0200087B0200087B0200086C
:100080007B0200087B0200087B0200087B0200085C
:10009000C11C00087B0200087B020008BF21000889
:1000A0007B0200087B0200087B0200087B0200083C
:1000B0007B0200087B0200087B0200087B0200082C
:1000C0007B0200087B0200087B0200087B0200081C
:1000D0007B020008F1A700087B02000801A80008C5
:1000E0007B0200087B0200087B0200087B020008FC
:1000F0007B0200087B0200087B020008191F000831
:100100007B0200087B0200087B0200087B020008DB
:100110007B0200087B0200087B0200087B020008CB
:100120007B020008951F0008A51F00087B0200083D
:100130007B0200087B0200087B0200087B020008AB
:10014000D11C00087B0200087B020008258F0008F4
:100150007B020008752000088520000841A90008DE
:100160007B0200087B0200087B0200087B0200087B
:100170007B0200087B0200087B02000800000000F0
:100180007B0200087B020008DFF810D000F078FC4A
:1001900000480047FD280108AFF30080E0AD0020D3
:1001A0002C4B19680868B0E8F04F80F30988BFF35A
:1001B0006F8F4FF0000080F311887047000000003F
:1001C00008480068006880F308884FF0000080F35A
:1001D000148862B661B6BFF34F8FBFF36F8F00DF35
:1001E00000BF00BF08ED00E0DFF80C00016841F43B
:1001F00070010160704700BF88ED00E0EFF30980F7
:10020000BFF36F8F134B1A681EF0100F08BF20ED5D
:10021000108A20E9F04F106009B44FF0500080F3CD
:100220001188BFF34F8FBFF36F8F15F079F84FF040
:10023000000080F3118809BC19680868B0E8F04F25
:100240001EF0100F08BFB0EC108A80F30988BFF3CE
:100250006F8F7047FC020020EFF3058070470000AD
:100260000648804706480047FEE7FEE7FEE7FEE750
:10027000FEE7FEE7FEE7FEE7FEE7FEE72D9E00084D
:10028000890100089FED1A1AF5EE000A40EE010AF6
:10029000BDEEE00AF5EEC00A10EE100AF1EE10FA1B
:1002A00038BF401E00EE100A1349F7EE001AB8EEF0
:1002B000C00A30EEC00ADFED0F0A20EE200AFCEE85
:1002C000C00A10EE900AC0F3080000EE900A01EB9D
:1002D0008000F8EE600A90ED011A70EE600A90ED71
:1002E000000A71EEE01A21EE800A00EE810A7047E2
:1002F00083F9223E00000044146B0108DFED190A67
:10030000B5EEC00A60EE200ABDEEE01A11EE100A4A
:10031000F1EE10FA38BF401E00EE100A1349F7EE56
:10032000001AB8EEC00A30EEC00ADFED0F0A60EE28
:10033000200ABCEEE00A10EE100AC0F3080000EE3E
:10034000100A01EB8000B8EE400A90ED011A70EE41
:10035000C00A90ED000A71EEE01A21EE800A00EE6C
:10036000810A704783F9223E00000044146B0108A3
:100370002DE9F05F0546002092469B4688460646DA
:10038000814640241BE0284641464746224600F06D
:1003900058FA53465A46C01A914110D3114618468E
:1003A000224600F03FFA2D1A67EB01084F4622461D
:1003B0000120002100F036FA17EB00094E41201E03
:1003C000A4F10104DFDC484631462A464346BDE835
:1003D000F09F40EA01039B0703D009E008C9121F00
:1003E00008C0042AFAD203E011F8013B00F8013BEF
:1003F000521EF9D27047D2B201E000F8012B491E1B
:10040000FBD270470022F6E710B513460A460446B1
:100410001946FFF7F0FF204610BD421C10F8011BE3
:100420000029FBD1801A70472DE9FE4F804681EAF2
:100430000300C00F0C46009021F0004123F000455E
:10044000B8EB0200A94105D24046214690461C4621
:100450000B46024623F00040104347D0270DC7F358
:100460000A00C3F30A510290401A019040286BDA47
:10047000C3F3130040F4801B0098924620B1002380
:10048000D2EB030A63EB0B0B01985946C0F1400213
:10049000504600F0C7F906460D4650465946019AA7
:1004A00000F0DFF910EB08006141002487EA1152E7
:1004B00084EAE7731A4340D0009A62B3019A012A92
:1004C0004FEA075215DC001B61EB02014FF00042BE
:1004D00002EA0752CDE90042001C41F58011324684
:1004E0002B4600F016FA03B0BDE8F08F40462146D7
:1004F000F9E7001B61EB0201001C41F580130018B5
:100500005B412018A2F5001747EB030140EAD570C4
:10051000B6196D4111E06D084FEA360645EAC0751F
:100520004FEA0752001B61EB0201001C41F58011EC
:1005300049084FEA30000019514132462B4603B0BA
:10054000BDE8F04F00F0D6B900980122400000232A
:10055000D0EB020263EBE073009821464FEAE074AF
:10056000B8EB000061EB0401E9E783F000435BE7CF
:1005700081F0004158E72DE9FE4F81EA030404F0C1
:10058000004421F0004100944FF0000B23F00043A1
:1005900050EA01045ED052EA03045BD0C3F30A546C
:1005A000C1F30A552C44A4F2F3340194A0FB025485
:1005B000C1F3130141F48011C3F3130343F4801317
:1005C00001FB024400FB034E840A970A44EA81546B
:1005D00047EA8357A4FB076802958D0A05FB078548
:1005E0004FEA932C04FB0C542705029D4FEA065852
:1005F00047EA1637B5EB08056EEB070C870E920E2F
:1006000047EA811742EA8312A7FB0201B6EB0B010E
:1006100064EB00042B0D43EA0C335E1844EB1C50D2
:10062000DA465146E7FB0201C5F313044FEA0B33E8
:1006300043EA14534FEA0432019C43EA0603A4F14F
:100640000C040294009CCDE900B400F062F903B000
:10065000BDE8F08F00200146F9E72DE9F04D81EA71
:10066000030404F0004B21F0004514464FF0000A4B
:1006700023F0004150EA050220D054EA01021DD0C7
:10068000C5F30A570246C5F31303C1F31300C1F3C0
:100690000A5640F4801543F48013A7EB0608101B9C
:1006A000D64608F2FD3873EB050002D308F10108C5
:1006B00001E092185B41B8F1000F03DA0020014617
:1006C000BDE8F08D00204FF48011064684460EE010
:1006D000171B73EB050705D3121B63EB05030643DA
:1006E0004CEA010C49084FEA300092185B4150EA8D
:1006F0000107EDD152EA030012D082EA040083EA36
:100700000501084305D0101BAB4106D2012200238E
:1007100006E000224FF0004302E06FF001025310A8
:100720001AEB06004CEB085110EB0A0041EB0B01F1
:10073000BDE8F04D00F0DEB800F0004230F00040BF
:100740000AD0C10D01F56071C0F3160042EA0151F3
:10075000C20840071143704700200146704700005F
:1007600030B5041E71F1000404DB4FF00044404238
:1007700064EB0101141E73F1000405DB1C464FF00D
:100780000043524263EB04038B4208BF824230BDF8
:1007900030B5041E71F1000404DB4FF00044404208
:1007A00064EB0101141E73F1000405DB1C464FF0DD
:1007B0000043524263EB0403994208BF904230BDAC
:1007C00001F0004330B421F0004150EA010206D0AC
:1007D0000A0DA2F56072C1F31301002A02DC30BCDD
:1007E00000207047440F44EAC104C100E01830BC47
:1007F00000EBC25000F047B830B50B460146002070
:100800002022012409E021FA02F59D4205D303FAD2
:1008100002F5491B04FA02F52844151EA2F1010253
:10082000F1DC30BD202A04DB203A00FA02F100207E
:1008300070479140C2F1200320FA03F3194390401E
:100840007047202A04DB203A21FA02F00021704789
:1008500021FA02F3D040C2F1200291400843194628
:100860007047202A06DBCB17203A41FA02F043EA10
:10087000E07306E041FA02F3D040C2F12002914059
:100880000843194670470029A8BF7047401C49001B
:1008900008BF20F00100704710B4B0FA80FC00FAE5
:1008A0000CF050EA010404BF10BC704749B1CCF110
:1008B000200421FA04F411FA0CF118BF012121439C
:1008C0000843A3EB0C01CB1D4FEA00614FEA102057
:1008D00042BF002010BC704700EBC35010440029F9
:1008E000A4BF10BC7047401C490008BF20F00100A5
:1008F00010BC704710B5141E73F1000408DA401CD8
:1009000041F1000192185B411A4301D120F001002E
:1009100010BD2DE9F04D92469B4611B1B1FA81F21E
:1009200002E0B0FA80F220329046FFF77BFF0446E7
:100930000F4640EA0A0041EA0B0153465A46084373
:1009400013D0114653EA010019D0C8F140025046B5
:10095000FFF777FF05460E46504659464246FFF7D9
:1009600061FF084305D0012004E020463946BDE878
:10097000F08D0020054346EAE0762C4337430A9881
:100980006305E40AA0EB08000022FD0A44EA47548C
:100990000A3002D500200146E9E701051019694136
:1009A000DDE9084500196941BDE8F04DA2E72DE9F0
:1009B000F04D00231A461B1A8A4103DB0020014632
:1009C000BDE8F08DC1F30A52C1F3130141F4801563
:1009D0004FF0000BD10702D100186D41521E0027C5
:1009E000044640F2FF11384601EB620A3E4680465B
:1009F000024600204FF48011FFF723FFC219714116
:100A0000BB1846EB0100B4EB030C75EB000C04D3F0
:100A1000E41A65EB000517460E46241908F101009B
:100A20006D4180463428E3DDF91946EB0600091BC9
:100A3000A84103D24FF0FF32134601E000221346D3
:100A40001BEB070046EB0A51BDE8F04DFFF752BF24
:100A5000C1F30A52C1F3130140F2FF3341F4801194
:100A60009A4202DA00200146704740F233439A422C
:100A7000A2F2334202DC5242FFF7E3BEFFF7D2BEDE
:100A8000064C074D06E0E06840F0010394E80700DB
:100A900098471034AC42F6D3FFF77AFB6473010831
:100AA0008473010870B58C1810F8015B15F007030A
:100AB00001D110F8013B2A1106D110F8012B03E0F7
:100AC00010F8016B01F8016B5B1EF9D12B0705D4FF
:100AD0000023521E0DD401F8013BFAE710F8013B48
:100AE000CB1A921C03E013F8015B01F8015B521E64
:100AF000F9D5A142D8D3002070BD000055494A68FD
:100B000022F440324A604A6843681A434A600268E5
:100B1000526822F4807203685A600268536802695E
:100B200043EA022203685A600268526822F0407267
:100B300003685A600268526883681A4303685A60FF
:100B40000268926822F4006203689A600268926800
:100B5000C3681A4303689A603F4B826A9A4218D06E
:100B60000268926822F0706203689A600268926874
:100B7000836A1A4303689A600268926822F04052BE
:100B800003689A6002689268C36A1A4303689A60AD
:100B90000BE00268926822F0706203689A60026853
:100BA000926822F0405203689A600268926822F0CC
:100BB000020203689A6002689368027E43EA420276
:100BC00003689A602022125CA2B10268526842F463
:100BD000006203685A600268526822F46042036847
:100BE0005A6002685368426A521E43EA42320368FE
:100BF0005A6005E00268526822F4006203685A6095
:100C00000268D26A22F470020368DA620268D36A68
:100C1000828B521E43EA02520368DA6202689268CB
:100C200022F4007203689A600268936890F830209A
:100C300043EA422203689A600268926822F4806262
:100C400003689A6002689368426943EA82220368F3
:100C50009A607047002301400100000F10B52DED90
:100C6000028BB0EE408AB0EE480A0CF047FCBDECB7
:100C7000028B10BD10B52DED028BB0EE408AF0EE68
:100C8000608AF0EE680AB0EE480A0CF0CDFCBDECCC
:100C9000028B10BD10B52DED028BB0EE408AB0EE88
:100CA000480AFFF7EFFABDEC028B10BDF0EE400AE8
:100CB000F5EEC00AF1EE10FA02DDB0EE600A704700
:100CC000B1EE600AFBE7000018B19FED020A80ED6B
:100CD000000A70470000000018B1B3EE060A80ED6C
:100CE000000A704770B52DED0C8B84B006460C469B
:100CF00015469FED990AF0EE408A9FED970AB0EEF7
:100D0000409A9FED950AF0EE40BA9FED930AF0EEFF
:100D1000409A9FED910AB0EE40AA0EB104B11DB900
:100D200004B0BDEC0C8B70BD8C48FFF7CDFF8C4838
:100D3000FFF7D2FF8A48D0ED000A9FED8A1A60EED5
:100D4000810AB0EE600A00F02DF9F0EE408A28EE3C
:100D5000A80AF0EE408A8248D0ED000AB0EE001AF0
:100D600060EE810A9FED7F1A60EE810AB0EE600AA4
:100D700000F018F9B0EE409A29EE090AB0EE409A58
:100D8000DFED790AB7EE000A00EEA80ADFED770A78
:100D900000EEC90ADFED760A20EE200A754880EDE4
:100DA000000A6E4890ED000ADFED730A80EE201A0B
:100DB000B7EE000A31EE000A20EE000A6D48D0EDD1
:100DC000000A80EE801A6D4880ED001A94ED000A4A
:100DD000B5EEC00AF1EE10FA0DD194ED010AB5EEB0
:100DE000C00AF1EE10FA06D194ED020AB5EEC00A7F
:100DF000F1EE10FA46D09FED580AB0EE408A00207E
:100E0000019002900390D4ED000A60EEA00A94EDE8
:100E1000011AD4ED011A41EE210A94ED021AD4ED23
:100E2000021A41EE210AB0EE600A00F0A9F8B0EE15
:100E3000408A94ED000A20EE080A8DED010A94ED37
:100E4000010A20EE080A8DED020A94ED020A20EE56
:100E5000080A8DED030ADDED010AF1EE600AB0EE3D
:100E6000600AFFF7FBFEF0EE409A9DED031AF0EEEC
:100E7000410A9DED021AB0EE410AFFF7FBFEB0EE0B
:100E800040AA07E09FED340AF0EE409A9FED320A47
:100E9000B0EE40AA95ED000AB5EEC00AF1EE10FAE8
:100EA0000DD195ED010AB5EEC00AF1EE10FA06D1AA
:100EB00095ED020AB5EEC00AF1EE10FA3CD0B0EEA4
:100EC000690A00F06FF8B0EE408AB0EE690AFFF7E9
:100ED000E1FEB0EE40DAB0EE4A0A00F063F8F0EE60
:100EE00040AAB0EE4A0AFFF7D5FEB0EE40BA28EEAF
:100EF0002A0AD5ED010A20EE200AD5ED000A0DEEF2
:100F0000200A68EE0B0A95ED021A00EE810AB0EE97
:100F100040CA95ED010A20EE0B0AD5ED020A0AEE51
:100F2000E00AF0EE40CAF0EE6C0AB0EE4C0AFFF7B1
:100F3000A1FEF0EE40BA03E09FED070AF0EE40BAE2
:100F4000B0EE4A1AF0EE690AB0EE6B0A30460DF0C8
:100F50009BFC00BFE4E60000000000000804002045
:100F60000C04002035FA8E3CC1BFAD3B9DF8C53660
:100F70002F7C1C4110040020506CC24A1404002035
:100F800010B52DED028BB0EE408AB0EE480A0CF0A1
:100F9000E8FCB7EE001AC1EE000AB0EE600ABDEC44
:100FA000028B10BD10B52DED028BB0EE408AB0EE75
:100FB000480AFFF7A3F9BDEC028B10BD2DE9F04103
:100FC0002DED028B9AB00546B0EE408A0E461746CC
:100FD000984600201790189019901490159016902C
:100FE0004DB146B13FB1B8F1000F04D0B5EEC08AA3
:100FF000F1EE10FA05D100201AB0BDEC028BBDE86D
:10100000F08196ED000A8DED170A96ED010A8DED3F
:10101000180A96ED020A8DED190A97ED000A8DED7A
:10102000140A97ED010A8DED150A97ED020A8DED70
:10103000160A17AA14A928460DF05AFA402104A846
:10104000FFF7E0F900200090019002900390002447
:1010500017A904A813F078FB00BF30E004A800EB48
:10106000041090ED000AD5ED000A20EE200A04A835
:1010700000EB0410D0ED010A95ED011A00EE810A93
:1010800004A800EB0410D0ED020A95ED021A00EE60
:10109000810A04A800EB0410D0ED030A95ED031AB1
:1010A00000EE810A20EE080AF0EE000A80EE201A17
:1010B000684600EB840080ED001A601CC4B2042C6A
:1010C000CCDB002410E005EB840090ED000A6846BC
:1010D00000EB8400D0ED000A30EE200A05EB84001E
:1010E00080ED000A601CC4B2042CECDB284612F030
:1010F0000BFB012080E7000010B5012210210248FF
:1011000002F042FF10BD00000000024010B50022B6
:101110001021024802F038FF10BD0000000002401C
:101120007047000010B501221146024802F02CFF62
:1011300010BD00000004024010B500220121024849
:1011400002F022FF10BD00000004024010B54378F9
:101150001B021BB20478234300EE103AB8EEC01A0B
:101160001C4BD3ED001A21EE211A81ED001AC37831
:101170001B021BB28478234300EE103AB8EEC01A6B
:10118000144BD3ED001A21EE211A81ED011A437997
:101190001B021BB20479234300EE103AB8EEC01ACA
:1011A0000C4BD3ED001A21EE211A81ED021A037ABD
:1011B0001B04C47943EA04238479234300EE903A64
:1011C000B8EE601ADFED041A21EE211A82ED001A42
:1011D00010BD0000C002002000401C42704710B546
:1011E0000446204611F0F4FB10BD10B5044620461D
:1011F0000FF0BCF810BD00004278120212B2037862
:101200001A4300EE102AF8EEC00A144A92ED001AB2
:1012100060EE810AC1ED000AC278120212B2837830
:101220001A4300EE102AF8EEC00A0C4A92ED001A9A
:1012300060EE810AC1ED010A4279120212B203790D
:101240001A4300EE102AF8EEC00A044A92ED001A82
:1012500060EE810AC1ED020A70470000C40200205E
:1012600010B50024FFF75CFFFFF7B8FF0DF05CFC42
:1012700010B144F0800402E00DF0BCFB04430DF01B
:101280004BFE10B144F0400402E00DF0CBFD0443EE
:10129000204610BD2DE9FC4105460E4617460020AC
:1012A00000900190FFF732FF922000F0D1F8062263
:1012B0006946122000F0ACF8FFF71EFF9DF8010010
:1012C000000200B29DF8001040EA010400EE104A4E
:1012D000B8EEC00A4C48D0ED000A20EE200A86ED98
:1012E000000A9DF80300000200B29DF8021040EAD7
:1012F000010400EE104AB8EEC00A4348D0ED000ADF
:1013000020EE200A86ED010A9DF80500000200B2D9
:101310009DF8041040EA010400EE104AB8EEC00A3D
:101320003948D0ED000A20EE200A86ED020AFFF7C8
:1013300003FF08226946002000F06AF8FFF7F2FE7A
:101340009DF800000F2838D19DF80300000200B27C
:101350009DF8021040EA010400EE104AB8EEC00AFF
:101360002A48D0ED000A20EE200A85ED000A9DF8FB
:101370000500000200B29DF8041040EA010400EEEE
:10138000104AB8EEC00A2148D0ED000A20EE200A2B
:1013900085ED010A9DF80700000200B29DF80610D5
:1013A00040EA010400EE104AB8EEC00A1748D0ED3A
:1013B000000A20EE200A85ED020AFFF7A7FEA22010
:1013C00000F046F802226946222000F021F8FFF7DB
:1013D00093FE9DF80000C0009DF8011040EA6114E2
:1013E000B4F5806F02DBA4F5006004B200EE104A91
:1013F000F8EEC00AB4EE001AB3EE070A00EE810A56
:1014000087ED000ABDE8FC81C0020020C402002074
:1014100070B506460C46154646F0800000F018F8F8
:1014200006E0552000F014F82070641C681EC5B258
:10143000002DF6D170BD70B504460D4644F0800015
:1014400000F006F8552000F003F8287070BD000089
:1014500001B582B04FF47A70012301AA02A900906D
:10146000024804F0DFFF9DF804000EBD340D00209B
:1014700010B502461378DB00547843EA6410B0F5E7
:10148000806F02DBA0F5006318B200EE100AF8EEE0
:10149000C00AB4EE001AB3EE070A00EE810A81ED2D
:1014A000000A10BD70B505460C462846FFF7D0FF70
:1014B0002046FFF7CDFF70BD30B52DED088B85B010
:1014C00005469FED6F0AB0EE408A9FED6D0AB0EEC3
:1014D000409A9FED6B0AF0EE408A00200190029046
:1014E000039004900024D5ED921AB0EE611AD5ED68
:1014F000911AF0EE610AD5ED901AB0EE610A01A8DA
:101500000EF0E4FD287C03281AD100BF12E001A8E8
:1015100000EB840090ED000ABDEEC00A10EE100A48
:1015200001B204EB840205F1140000EB8200018299
:10153000601CC4B2042CEADB05B0BDEC088B30BDE6
:10154000002434E001A800EB840090ED000A04EBD5
:10155000840105F1140000EB810080ED030A04EB27
:10156000840205F1140000EB820090ED030A10EEF6
:10157000101A0846FFF7E0F841EC1B0BB0EE4B0ADF
:10158000F0EE6B0A0CF0A6F9B0EE40AAF0EE60AAFD
:1015900051EC1A0BFFF714F908EE900AB4EEE88A42
:1015A000F1EE10FA01D2B0EE688A601CC4B2042CCD
:1015B000C8DBB1EE000AB4EEC08AF1EE10FA1DDD10
:1015C000B1EE000AC0EE080AB0EE609A002413E003
:1015D00004EB840105F1140000EB810090ED030A97
:1015E00020EE090A04EB840105F1140000EB8100F0
:1015F00080ED030A601CC4B2042CE9DB00241DE06A
:1016000004EB840205F1140101EB820191ED031A50
:10161000F0EE410A04EB840205F1140101EB8201B2
:1016200091ED021AB0EE410A04EBC40205F1640127
:1016300001EBC20007F0AEFD601CC4B2042CDFDB7E
:1016400028460EF0D9F9002415E004EBC40105F199
:10165000640000EBC10090ED080ABDEEC00A10EE78
:10166000100A01B204EB840205F1140000EB8200C1
:101670000182601CC4B2042CE7DB00BF5CE7000001
:101680000000000070B5044604B970BD002500BF1D
:101690002DE005EB850104F1140050F82100B0F9AC
:1016A000020000EE100AB8EEC00ADFED4A0A20EE92
:1016B000200A05EB850104F1140000EB810080EDA8
:1016C000020A05EBC50104F1640000EBC10090EDD6
:1016D0000C0ADFED410A20EE200A05EB850104F13A
:1016E000140000EB810080ED010A681CC5B2042DD6
:1016F000CFDB94ED070AB1EE400AD4ED0C0A30EED0
:10170000200AD4ED110A30EE200AD4ED160A30EE8C
:10171000600AF5EE000A20EE200A84ED8D0A94EDB1
:10172000070AB1EE400AD4ED0C0A30EE600AD4ED9F
:10173000110A30EE200AD4ED160A30EE200AF5EE3A
:10174000000A20EE200A84ED8E0A94ED070AB1EE1D
:10175000400AD4ED0C0A30EE600AD4ED110A30EEE6
:10176000600AD4ED160A30EE600AF5EE000A20EEAB
:10177000200ADFED1A0A80EE201A84ED8F1AE06845
:10178000D0ED000A606890ED2E1A70EEC10AB0EE3E
:10179000600A9FED131ADFED130A11F07FF884ED54
:1017A0009A0AE068D0ED010AA06890ED2E1A70EE5A
:1017B000C10AB0EE600A9FED0A1ADFED0A0A11F0C5
:1017C0006DF884ED9B0AE06890ED020A84ED9C0AB6
:1017D00000BF5AE70A01DA390000FA43CDCC4C3E8B
:1017E000DB0F4940DB0F49C070B5044604B970BD3A
:1017F000002020740FF098FB20600FF06BFAE0607F
:101800000FF0DEFB60600FF08BFBA060002526E090
:1018100028460FF0D7FA05EB850204F1140141F8D0
:1018200022002B4901EB850191ED001AF0EE410AEF
:10183000284901EB850191ED001AB0EE410A05EB54
:101840004501254B03EB810205EBC50304F164015F
:1018500001EBC300002107F0BBFD681CC5B2042DDD
:10186000D6DBDFED1E0AB1EE080A1D4A002104F5A1
:10187000E67007F0ADFDDFED1B0A9FED1B0A1B4A6A
:10188000002104F5C27007F0A3FD19499FED190A64
:1018900004F505700FF0D4F817499FED160A04F50A
:1018A00009700FF0CDF8B0EE080A84ED960AB8EE94
:1018B000080A84ED970AB0EE080A84ED980AB8EE9B
:1018C000080A84ED990A2046FFF7DCFE00BF8EE788
:1018D0005C6701084C6701081C670108CDCC4C3ED1
:1018E0007867010800000000000070426C67010882
:1018F000846701086F12033B8867010800B97047CD
:10190000417C027C914200D1F9E7417C31B1017CFC
:1019100021B99FED140A80ED940A1FE0417C012952
:1019200007D0017C012904D190ED9A0A80ED950A37
:1019300014E0417C022907D0017C022904D190EDFA
:101940009A0A80ED950A09E0417C042906D0017CC1
:10195000042903D190ED9A0A80ED950A017C417427
:1019600000BFCCE70000000010B52DED048B84B063
:1019700004461CB904B0BDEC048B10BD9FEDC40A35
:101980008DED030A9FEDC20A8DED020A9FEDC00A9C
:101990008DED010A9FEDBE8ADFEDBD8A224602A9C8
:1019A00003A80EF009FA2068B0F9000000EE100A52
:1019B000B8EEC00ADFEDB70A20EE200A8DED010A6D
:1019C0009DED010A84ED920A94ED960AB0EE401A5C
:1019D00094ED970AF0EE400A9DED030A0FF0B0F87F
:1019E00084ED900A94ED980AB0EE401A94ED990AAD
:1019F000F0EE400A9DED020A0FF0A2F884ED910A84
:101A0000234601AA02A903A80DF064FE207CE0BBD6
:101A10009FED9F0AB0EE409A9FED9D0AF0EE409A2E
:101A20006068D0ED2E0AF1EE600AB0EE600AFEF7B3
:101A300065FCB0EE409A6068D0ED2E0AF1EE600AC7
:101A4000B0EE600AFEF71EFCF0EE409A9DED030A30
:101A500029EE800ADDED020A09EE200A84ED900AE3
:101A6000B1EE490ADDED030A20EE200ADDED020A9F
:101A700009EEA00A84ED910A9DED010A84ED920A17
:101A8000D4ED961AB0EE611A00E01CE0D4ED971A7E
:101A9000F0EE610AD4ED901AB0EE610A0FF050F842
:101AA00084ED900AD4ED981AB0EE611AD4ED991A2B
:101AB000F0EE610AD4ED911AB0EE610A0FF040F831
:101AC00084ED910AE1E0207C012853D19FED700A5A
:101AD000B0EE409AE068D0ED000A94ED9A1A70EEEC
:101AE000C10AB0EE600A9FED6C1ADFED6C0A10F0CF
:101AF000D5FEB0EE409A84ED959AF0EE490A9FED3E
:101B0000640A04F5E67007F045FB84ED920A94ED53
:101B1000920ADFED630AB4EEE00AF1EE10FA0CD29D
:101B200094ED920ADFED5F0AB4EEE00AF1EE10FAEE
:101B300003DD9FED570A84ED920A94ED960AB0EE0C
:101B4000401A94ED970AF0EE400A9DED030A0EF05C
:101B5000F7FF84ED900A94ED980AB0EE401A94EDE8
:101B6000990AF0EE400A9DED020A0EF0E9FF84EDBD
:101B7000910A8AE0207C022820D19DED010A84EDA3
:101B8000920A94ED960AB0EE401A94ED970AF0EEA0
:101B9000400A9DED030A0EF0D3FF84ED900A94ED08
:101BA000980AB0EE401A94ED990AF0EE400A9DEDC5
:101BB000020A0EF0C5FF84ED910A66E0207C04283D
:101BC0004CD194ED960AB0EE401A94ED970AF0EEDF
:101BD000400A9DED030A0EF0B3FF8DED030A94ED6C
:101BE000980AB0EE401A94ED990AF0EE400A9DED85
:101BF000020A0EF0A5FF8DED020A6068D0ED2E0AF4
:101C0000F1EE600AB0EE600AFEF778FBB0EE408AB3
:101C10006068D0ED2E0AF1EE600AB0EE600AFEF7C1
:101C200031FBF0EE408A9DED010A84ED920A9DEDB4
:101C3000030A28EE800ADDED020A08EE200A84ED90
:101C4000900AB1EE480ADDED030A20EE200ADDED30
:101C5000020A08EEA00A84ED910A16E0207C03280F
:101C600013D19DED030A84ED900A9DED020A84EDE7
:101C7000910A9DED010A84ED920A9FED050A84ED1B
:101C8000860A9FED030A84ED8A0A00BF72E600000F
:101C9000000000000AD723BCDB0F4940DB0F49C01E
:101CA000CDCCCC3DCDCCCCBD10B5044604B910BDD7
:101CB00020460DF06BFD00BFF9E700BFFEE7000016
:101CC00010B5024801F00CF910BD0000580B0020BF
:101CD00010B5024801F004F910BD0000800B00208F
:101CE000F8B507460C4615461E4640F2FF100D4952
:101CF000086000208860C86008200861380A0A4926
:101D000008704F70200A8870CC70280A08714D71D5
:101D1000300A8871CE716B460A460249034800F0CA
:101D2000E4FEF8BD5C370020E0010020580B0020E5
:101D3000F8B507460C4615461E464FF400700D498F
:101D4000086000208860C86008200861380A0A49D5
:101D500008704F70200A8870CC70280A08714D7185
:101D6000300A8871CE716B460A460249034800F07A
:101D7000BCFEF8BD44370020D8010020580B0020DD
:101D8000F8B506460C46154640F2FF200B490860A0
:101D900000208860C86006200861300A0849087081
:101DA0004E70200A8870CC70280A08714D716B46FD
:101DB0000A460249034800F098FEF8BD2C3700207F
:101DC000D0010020800B00200346042B15D007DC37
:101DD0007BB1012B0ED0022B0DD0032B12D10BE0C7
:101DE000202B0BD0212B0AD0222B09D0232B09D159
:101DF00007E008E007E006E005E004E003E002E0B9
:101E000001E000E000BF00BF0020704700207047E5
:101E100010B500220449054809F0C1F804490348F7
:101E200009F0AEF8002010BDA8260020A012002066
:101E3000A81E002070B505460C462248006821689F
:101E400008442049086008460068B0F5006F17D2C2
:101E500008460068001F1C49085C0D2810D019486E
:101E60000068C01E085C0A280AD0164800680A46A6
:101E70008118164809F084F8144809F04DF81EE05E
:101E8000002010490968104A50540E480E49026853
:101E90000F48FEF79EFA01200A498860084600684C
:101EA0004860002008604FF400610748FEF7AAFA76
:101EB0000549064809F064F8044809F02DF80020A7
:101EC00070BD0000BC320020A81E0020A01200201F
:101ED000BC30002010B503460C460021084610BD5A
:101EE0002DE9F04104460D4600260A48D0F8BC72A0
:101EF000D7F8140210B10120BDE8F0812A4621462E
:101F0000044809F04CF8034809F0FCF8064630464E
:101F1000F2E70000A01200201B48406800F00060BB
:101F200080B31A48406B00681949884205D94FF0C0
:101F3000006017494C3908601CE01448406B006889
:101F40001149B831884205D94FF000601049503925
:101F500008600FE00D48406B00680B49583188421B
:101F600004D94FF000600849C86003E04FF00060FA
:101F70000549886005480068006840F4007003491E
:101F8000096808607047000000600240FC0B0020F8
:101F90005864024010B5024801F0D0FB10BD0000AB
:101FA000E011002010B52C48006800F40010002853
:101FB00050D04FF0F4602849083108602748007875
:101FC00000F0020078B12548007820F00200234993
:101FD00008700846007840F004000870012211469D
:101FE0001F4801F0D1FF1F48007800F0020078B1CF
:101FF0001C48007820F002001A4908700846007852
:1020000040F00400087001221021174801F0BCFFC5
:102010001648007800F0020078B11448007820F0EB
:102020000200124908700846007840F00400087069
:10203000012210210C4801F0A7FF10F043F90748D6
:10204000007800F0040028B10948006840F0010061
:102050000749086010BD00000064024055010020DF
:1020600000040240560100200000024057010020F9
:10207000103C014010B5024801F060FB10BD0000AB
:102080004012002010B5024801F058FB10BD0000BE
:10209000201100200146087810381823B0FBF3F215
:1020A0000848805CC865032A05D908686FF30900F1
:1020B000001D886503E008686FF309008865886D76
:1020C00070470000E86A0108014600208A6A8B69AF
:1020D000CBB932B1012A0DD0022A03D0032A10D184
:1020E0000EE000BFCB6A03F08073B3F1807F00D1B4
:1020F000012007E0CB6AB3F1C07F00D1012001E0ED
:1021000000E000BF34E08B69B3F5005F1AD132B153
:10211000012A07D0022A03D0032A11D10AE000BF06
:1021200001200EE0CB6A03F08073B3F1807F00D111
:10213000012006E0CB6AB3F1C07F00D1012000E0AE
:1021400000BF15E032B1012A05D0022A04D0032ACB
:102150000CD103E000BF00BF012008E0CB6A03F010
:102160008073B3F1807F00D1012000E000BF00BF89
:10217000704730B50468246824F4802405682C6016
:10218000046863608468402C04D10468A260046819
:10219000E16003E00468A1600468E26030BD70475C
:1021A00010B5012001F0E0FD10BD10B5082001F0D0
:1021B000DBFD10BD10B5102001F0D6FD10BD10B52F
:1021C000202001F0D1FD10BD72B600BFFEE7000077
:1021D00010B5002201B909E0012901D10A0205E088
:1021E000022901D10A0201E04FF440720E4B1B6834
:1021F00023F440730C4C236023461B681343236075
:1022000023461B6823F0F803236023461B6802243F
:1022100044EAC0042343044C236023461B6843F470
:102220008033236010BD0000103C02401C48006851
:1022300000F40070B0B11A48006820F4007018492A
:10224000086000BF0846006840F400600860084667
:10225000006820F40060086000BF0846006840F491
:10226000007008600E48006800F48060B0B10C484F
:10227000006820F480600A49086000BF08460068D2
:1022800040F4805008600846006820F480500860E0
:1022900000BF0846006840F4806008607047000096
:1022A000003C02400A4A126822F44072084B1A604D
:1022B0001A46126842F004021A601A4612684FF475
:1022C000803343EA00231A43014B1A607047000031
:1022D000103C0240074A126822F44072054B1A6013
:1022E0001A4612681A601A46126842F001021A6011
:1022F00001707047103C024010B50D49096821F487
:1023000040710B4C21602146096841F44071216005
:102310002146096841F001012160026000BF00BF51
:1023200000BFBFF36F8F00BF00BF00BF436010BD91
:10233000103C0240084A126822F44072064B1A60B0
:102340001A46126842F480721A601A46126842F005
:1023500001021A6001807047103C0240084A12686E
:1023600022F44072064B1A601A46126842F4007258
:102370001A601A46126842F001021A600160704742
:10238000103C02402348006800F0100040B1224891
:10239000C06940F010002049C86110201D49086044
:1023A0001C48006800F0200040B11B48C06940F0A4
:1023B00008001949C86120201649086015480068BE
:1023C00000F0400040B11448C06940F004001249D8
:1023D000C86140200F4908600E48006800F0800086
:1023E00040B10D48C06940F002000B49C86180202F
:1023F000084908600748006800F0020040B106483C
:10240000C06940F020000449C86102200149086009
:10241000704700000C3C02407C47002070B5044629
:10242000002500201449C86101F0B4FD054609E00B
:10243000601C38B124B101F0ADFD401BA04201D9B0
:10244000032070BD0D48006800F480300028EFD1F3
:102450000A48006800F0010010B101200749086037
:102460000648006800F0F20018B1FFF78BFF01206A
:10247000E7E70020E5E700007C4700200C3C024035
:1024800070B52DED088B05469FED4E0AB0EE408AE3
:102490009FED4C0AB0EE409A9FED4A0AF0EE408A5A
:1024A000002400BF27E004EB840205F10C0000EBE0
:1024B000820090ED030A10EE101A0846FEF73CF970
:1024C00041EC1B0BB0EE4B0AF0EE6B0A0BF002FA7C
:1024D000B0EE40AAF0EE60AA51EC1A0BFEF770F9CC
:1024E00008EE900AB4EEE88AF1EE10FA01D2B0EEEE
:1024F000688A601CC4B2022CD5DBB0EE080AB4EEC8
:10250000C08AF1EE10FA1DDDB0EE080AC0EE080A2E
:10251000B0EE609A002413E004EB840105F10C0096
:1025200000EB810090ED030A20EE090A04EB840120
:1025300005F10C0000EB810080ED030A601CC4B2C1
:10254000022CE9DB00241DE004EB840205F10C0100
:1025500001EB820191ED031AF0EE410A04EB8402D3
:1025600005F10C0101EB820191ED021AB0EE410A76
:1025700004EBC40205F1A80101EBC20006F00AFE5B
:10258000601CC4B2022CDFDB002415E004EBC401A4
:1025900005F1A80000EBC10090ED080ABDEEC00AED
:1025A00010EE100A01B204EB840205F10C0000EBFE
:1025B00082000182601CC4B2022CE7DBBDEC088BF8
:1025C00070BD00000000000070B50A480468001DDE
:1025D0000568001D0668344454B1082206492046A7
:1025E00005F00EFD042204491031284605F008FDCF
:1025F00070BD0000107AFF1F7600002038B502463B
:102600000020009000BF92F83C00012801D1022078
:1026100038BD012082F83C0000BF0868092816D99F
:102620001068C0680C780A3C04EB44050724AC40F1
:10263000A0431468E0600C780A3C04EB440488680A
:10264000A0401468E46820431468E06013E0106858
:1026500000690C7804EB44050724AC40A0431468DF
:1026600020610C7804EB44048868A0401468246955
:102670002043146820614868072817D21068406B0F
:102680000C79641E04EB84051F24AC40A04314683D
:102690006063088880B20C79641E04EB8404A04057
:1026A0001468646B20431468606331E048680D2847
:1026B00017D21068006B0C79E41F04EB84051F240B
:1026C000AC40A04314682063088880B20C79E41FF2
:1026D00004EB8404A0401468246B20431468206336
:1026E00016E01068C06A0C790D3C04EB84051F24C9
:1026F000AC40A0431468E062088880B20C790D3CBD
:1027000004EB8404A0401468E46A20431468E06287
:10271000194B1A4C1068A04206D10868122803D140
:10272000586840F480005860144C1068A0421CD1D6
:102730000868102802D00868112816D1586840F49B
:1027400000005860086810280FD10D4800680D4C33
:10275000B0FBF4F000EB80004000009002E0009835
:10276000401E009000980028F9D100BF002082F898
:102770003C0000BF00BF4BE70023014000200140A8
:10278000F802002040420F0001460868C06C704704
:1027900070B5044600250CB9012070BD1549A06A2A
:1027A000884200D000BF206C30B9204600F024F8E9
:1027B0000020606484F83C00206C00F0100088B9B0
:1027C000206C20F4885040F0020020642046FEF780
:1027D00095F900206064206C20F0020040F00100B8
:1027E000206400E0012500BF002084F83C0000BF09
:1027F0002846D2E70100000F10B586B00446142128
:1028000001A8FDF7FFFD2349206888420FD100BFD2
:10281000002000902048006840F480701E49086045
:102820000846006800F48070009000BF2FE01B494C
:10283000206888422BD100BF002000901648006815
:1028400040F48060144908600846006800F4806025
:10285000009000BF00BF00BF002000900E48143859
:10286000006840F020000C491439086008460068F0
:1028700000F02000009000BF00BF08150190032069
:1028800002900020039001A9054801F07BFA06B0F0
:1028900010BD0000002001404438024000220140E9
:1028A0000014024070B504460D460026206880687A
:1028B00000F48060B0F5806F11D12068806800F46A
:1028C0008070B0F5807F0AD1206C40F02000206439
:1028D00000BF002084F83C0000BF012070BD01F063
:1028E00059FB064618E0681CB0B125B101F052FB57
:1028F000801BA84210D92068006800F0020002285E
:102900000AD0206C40F00400206400BF002084F84E
:102910003C0000BF0320E1E72068006800F00200EF
:102920000228E0D16FF0120021680860206C40F4AA
:10293000007020642068806800F04050B8B9207EA4
:10294000A8B92068C06A00F4700020B120688068CF
:1029500000F4806058B9206C20F480702064206CF2
:1029600000F4805018B9206C40F001002064002071
:10297000B4E7000008B501460020009000BF91F8C0
:102980003C00012801D1022008BD012081F83C0053
:1029900000BF0868806800F00100A0B9086880687E
:1029A00040F001000B6898603F4800683F4BB0FB67
:1029B000F3F000EB4000009002E00098401E009011
:1029C00000980028F9D10868806800F0010000280C
:1029D00060D0086C40F20163984340F48070086452
:1029E0000868406800F4806028B1086C20F400504A
:1029F00040F480500864086C00F48050B0F5805FAB
:102A000004D1486C20F00600486401E000204864CE
:102A100000BF002081F83C0000BF254A6FF0220073
:102A20000B681860506800F01F0018BB214B086845
:102A3000984213D0204B0868984204D1101D0068BA
:102A400000F01F0050B11D4B086898422AD1184869
:102A5000001D006800F01F00102823D2086880685D
:102A600000F04050F0B90868806840F080400B6882
:102A7000986017E00F4B0868984213D10868806887
:102A800000F0405070B90868806840F080400B68E2
:102A9000986007E0086C40F010000864486C40F053
:102AA0000100486400206FE7F802002040420F0058
:102AB000002301400020014000210140002201408C
:102AC00010B5024692F82030012B01D0022B06D11E
:102AD00010684069084314686061002010BD506AA6
:102AE00040F4802050620120F8E7F0B504460D461E
:102AF0001E4694F8207020688368A86800B900E03A
:102B000000BF012F01D0022F7CD103F0806030B9CB
:102B100003F0006018B903F08050002873D0C3F3AD
:102B20000161022905D9606A40F400006062012059
:102B3000F0BD012088403060A86860B9B5F800C0D9
:102B4000E86840EA4C5C206800F5C07000EB0110BA
:102B5000C0F800C00FE0D5E901C040EACC00D5F8CC
:102B60000CC040EA0C00D4F800C00CF5C07C0CEBA3
:102B7000011CCCF80000D5F810C0206800F5C0702A
:102B800000EB0110C0F804C0287D01280ED1206898
:102B900000F5C07000EB0110406840F4807C2068B4
:102BA00000F5C07000EB0110C0F804C0D079000639
:102BB00092F806C040EA0C4092F805C040EA0C2C9E
:102BC00010794CEA000C206800F5C07000EB011091
:102BD000C0F80CC0D078000692F802C040EA0C4061
:102BE00092F801C040EA0C2092F800C040EA0C00C4
:102BF000D4F800C00CF5C07C0CEB011CCCF808002C
:102C0000206801E016E00FE000F5C07000EB011055
:102C1000006840F0010C206800F5C07000EB011066
:102C2000C0F800C0002083E7606A40F400106062D2
:102C300001207DE7606A40F480206062012077E730
:102C4000F0B504460A46216894F82050012D01D0C1
:102C5000022D7ED1424901F50071086840F0010063
:102C60000860086820F47C5008600868566A40EAEA
:102C700006200860107D00F01F06012000FA06F310
:102C8000C8699843C861A1F50071D069C8B9D1F885
:102C90000C029843C1F80C02908880B2968940EAF1
:102CA000064601F51070576940F83760108880B209
:102CB000168940EA064601F51070576900EBC70017
:102CC0004660D069012819D1D1F80C021843C1F827
:102CD0000C02908880B2168840EA064601F5107012
:102CE000576940F83760908980B2168940EA0646F5
:102CF00001F51070576900EBC7004660906928B96C
:102D0000D1F804029843C1F8040204E0D1F80402A7
:102D10001843C1F80402106928B9D1F81402984385
:102D2000C1F8140204E0D1F814021843C1F81402E7
:102D3000106A012804D1D1F81C021843C1F81C0202
:102D4000D1F8000220F00100C1F800020020F0BD1F
:102D5000FFE7606A40F4802060620120F7E700002E
:102D600000640040704770B5044694F82050012D6F
:102D700001D0022D7DD151B92068C06800F0030058
:102D800080B9606A40F400106062012070BD206864
:102D9000006900F0030028B9606A40F40010606226
:102DA0000120F3E7206800F5D87000EB01100068FF
:102DB00000F004009060906840B9206800F5D87079
:102DC00000EB01100068400D106007E0206800F57E
:102DD000D87000EB01100068C0085060206800F552
:102DE000D87000EB0110006800F00200D06020688D
:102DF00000F5D87000EB0110406800F00F00106182
:102E0000206800F5D87000EB0110406800F47F40A6
:102E1000000A9061206800F5D87000EB011040684E
:102E2000000C5061206800F5D87000EB011080683C
:102E30001870206800F5D87000EB0110806800F46D
:102E40007F40000A5870206800F5D87000EB011030
:102E5000806800F47F00000C9870206800F5D8703E
:102E600000EB01108068000ED870206800F5D87063
:102E700000E02FE000EB0110C0681871206800F539
:102E8000D87000EB0110C06800F47F40000A587150
:102E9000206800F5D87000EB0110C06800F47F00D6
:102EA000000C9871206800F5D87000EB0110C06824
:102EB000000ED87131B92068C06840F02000266843
:102EC000F06005E02068006940F02000266830616D
:102ED00000205BE7606A40F480206062012055E7D3
:102EE0002DE9F05F04460025206846692068D0F887
:102EF0000490206887682068D0F80CA02068D0F87B
:102F000010B02068D0F8188006F00100002855D0D5
:102F100007F00100C0B101202168886007F00200BD
:102F200018B1204600F06FFB0EE007F0040010B16E
:102F300045F4006508E007F0080010B145F480553D
:102F400002E0204600F05EFB07F48070C8B14FF449
:102F500080702168886007F4007018B1204600F086
:102F600054FB0EE007F4806010B145F4005508E012
:102F700007F4006010B145F4804502E0204600F0FF
:102F800043FB07F48030C8B14FF48030216888607B
:102F900007F4003018B1204600F039FB0EE007F4CA
:102FA000802010B145F4004508E007F4002010B17E
:102FB00045F4803502E0204600F028FB06F00800CA
:102FC00038B10AF0100020B145F4007510202168D6
:102FD000C86006F0040040B10AF0080028B10820DB
:102FE0002168C860204600F00DFA06F0020038B1F2
:102FF0002068C06800F0030010B1204600F004FA19
:1030000006F0400038B10BF0100020B145F48065A7
:1030100010202168086106F0200040B10BF0080084
:1030200028B1082021680861204600F0B9FA06F0AE
:10303000100038B12068006900F0030010B120468C
:1030400000F0AFFA06F4003040B109F0100028B1EA
:10305000102021684860204600F0A4FA06F4803071
:1030600040B109F0080028B10820216848602046D6
:1030700000F0CEFA06F4004088B309F0040078B3FB
:1030800006F4807020B108F0010008B145F0010598
:1030900006F4007020B108F0020008B145F0020506
:1030A00006F4806020B108F0040008B145F0040582
:1030B00006F40060A0B108F0700088B108F070005C
:1030C000402817D006DC10280BD020280CD0302840
:1030D00019D10CE0502810D0602814D110E01DE068
:1030E00019E045F008050FE045F010050CE045F04B
:1030F000200509E045F0400506E045F0800503E0C5
:1031000045F4807500E000BF00BF2068806920F0B2
:103110007000216888610420216848602DB1606AD0
:10312000284360622046FFF71DFEBDE8F09F70B5A2
:1031300004460CB9012070BD94F8200010B9204657
:1031400000F0B0F82068006840F0010021680860D5
:1031500000F020FF05460DE000F01CFF401B0A2890
:1031600008D9606A40F400306062052084F82000CD
:103170000120E0E72068406800F001000028EBD063
:103180002068006820F002002168086000F002FF5B
:1031900005460DE000F0FEFE401B0A2808D9606AD3
:1031A00040F400306062052084F820000120C2E76E
:1031B0002068406800F002000028EBD1207E012842
:1031C00006D12068006840F080002168086005E0B2
:1031D0002068006820F0800021680860607E012877
:1031E00006D12068006840F040002168086005E0D2
:1031F0002068006820F0400021680860A07E012857
:1032000006D12068006840F020002168086005E0D1
:103210002068006820F0200021680860E07E012816
:1032200006D12068006820F010002168086005E0E1
:103230002068006840F0100021680860207F0128A5
:1032400006D12068006840F008002168086005E0A9
:103250002068006820F0080021680860607F01286D
:1032600006D12068006840F004002168086005E08D
:103270002068006820F0040021680860D4E9020199
:10328000084321690843616908436168491E08438E
:103290002168C86100206062012084F820000020BD
:1032A00049E7000010B586B00446142101A8FDF7D7
:1032B000A9F84E492068884241D14D480068401C19
:1032C0004B4908600846006801280FD100BF002064
:1032D00000904848006840F0007046490860084681
:1032E000006800F00070009000BF00BF00BF002029
:1032F000009040481038006840F008003D491039FF
:1033000008600846006800F00800009000BF00BF99
:1033100003200190022002900020039003200490DB
:103320000920059001A9344800F02CFD0022062157
:10333000142001F0CDFA142001F0BAFA54E02F491C
:103340002068884250D100BF0020009029480068C2
:1033500040F08060274908600846006800F08060FF
:10336000009000BF00BF22480068401C2049086050
:103370000846006801280FD100BF002000901D48BA
:10338000006840F000701B4908600846006800F0C3
:103390000070009000BF00BF00BF002000901548E3
:1033A0001038006840F002001249103908600846E1
:1033B000006800F00200009000BF00BF6020019094
:1033C0000220029000200390032004900920059021
:1033D00001A90B4800F0D6FC00220621402001F094
:1033E00077FA402001F064FA06B010BD0064004096
:1033F0003400002040380240000C024000680040C9
:1034000000040240704700001CB504466B46614A48
:1034100000212046FFF7A7FC5E480068A0F20120CB
:103420000A287CD2DFE800F0050607080A090BB27B
:10343000588600BF00BF00BF00BF00BF00BF554897
:103440000078401E544908700846007800EB800060
:10345000524931F8100000B24F49097801EB81015F
:103460004E4A02EB410108819DF801009DF80010D1
:1034700040EA01204849097801EB810122F8110056
:103480009DF803009DF8021040EA012000B2424975
:10349000097801EB810102EB410148809DF80500AC
:1034A0009DF8041040EA012000B23B49097801EB85
:1034B000810102EB410188809DF8060036490978B8
:1034C00001EB810102EB4101887133490978491C04
:1034D000C8B20CF073FF5AE03048B0F8460001B2B1
:1034E0002E48A0F84E109DF801009DF8001040EA0B
:1034F00001202A49A1F846009DF803009DF802101A
:1035000040EA012001B22548A0F848109DF80500C6
:103510009DF8041040EA012001B2204800E035E0A7
:10352000A0F84A109DF8061080F84C1008200CF006
:1035300045FF2CE01948B0F8500001B21748A0F838
:1035400058109DF801009DF8001040EA0120134931
:10355000A1F850009DF803009DF8021040EA0120F8
:1035600001B20E48A0F852109DF805009DF8041015
:1035700040EA012001B20948A0F854109DF8061055
:1035800080F8561009200CF019FF00E000BF00BFC2
:103590001CBD000074370020E8010020D036002058
:1035A00070477047704770B5044694F820000128B2
:1035B00022D1022084F820002068006820F0010059
:1035C0002168086000F0E6FC05460DE000F0E2FC32
:1035D000401B0A2808D9606A40F400306062052068
:1035E00084F82000012070BD2068406800F00100D0
:1035F0000028EBD16062F6E7606A40F40020606268
:103600000120F0E770477047704770477047704778
:10361000704710B504460CB9012010BD607920B97F
:1036200000202071204600F005F801206071002084
:10363000F3E7000008B50A4A016891420FD100BFC4
:10364000002100910749096841F48051054A116041
:103650001146096801F48051009100BF00BF08BD08
:10366000003002403038024070B50446A56D00F0CD
:1036700091FC064694F83500022808D08020606549
:1036800000BF002084F8340000BF012070BD206816
:10369000006820F01600216808602068406920F06A
:1036A000800021684861206C08B9A06C28B12068AE
:1036B000006820F00800216808602068006820F099
:1036C00001002168086010E000F064FC801B052800
:1036D0000BD920206065032084F8350000BF00204E
:1036E00084F8340000BF0320D0E72068006800F0B1
:1036F00001000028E8D194F85C103F208840A860C1
:10370000012084F8350000BF002084F8340000BF99
:1037100000BFBBE7014691F83500022803D08020A6
:10372000486501207047052081F835000868006869
:1037300020F001000A6810600020F3E7F8B50446A5
:10374000002000908C4800684FF41651B0FBF1F750
:10375000A56D2E6894F85C1008208840304098B120
:103760002068006800F0040070B12068006820F054
:1037700004002168086094F85C1008208840A86064
:10378000606D40F00100606594F85C100120884095
:10379000304068B12068406900F0800040B194F882
:1037A0005C1001208840A860606D40F002006065F8
:1037B00094F85C1004208840304068B120680068AC
:1037C00000F0020040B194F85C1004208840A8602A
:1037D000606D40F00400606594F85C101020884033
:1037E000304078B32068006800F0080050B394F8C7
:1037F0005C1010208840A8602068006800F48020D9
:1038000080B12068006800F4002028B9206CC8B19D
:103810002046216C884715E0A06C98B12046A16C29
:1038200088470FE02068006800F4807028B920689D
:10383000006820F0080021680860206C10B1204664
:10384000216C884794F85C10202088403040002884
:1038500065D02068006800F0100000285FD094F860
:103860005C1020208840A86094F83500052828D1F5
:103870002068006820F01600216808602068406910
:1038800020F0800021684861206C08B9A06C28B144
:103890002068006820F008002168086094F85C1037
:1038A0003F208840A860012084F8350000BF002038
:1038B00084F8340000BF206D10B12046216D884788
:1038C000F8BD2068006800F4802080B1206800689E
:1038D00000F4002028B9606C10B12046616C884764
:1038E0001DE0E06BD8B12046E16B884717E0206807
:1038F000006800F4807068B92068006820F010004B
:1039000021680860012084F8350000BF002084F899
:10391000340000BFE06B10B12046E16B8847606D5A
:1039200038B3606D00F00100F0B1052084F8350077
:103930002068006820F001002168086000BF00983E
:10394000401C0090B84200D905E02068006800F0F3
:1039500001000028F3D100BF012084F8350000BF2A
:10396000002084F8340000BFE06C10B12046E16C08
:10397000884700BFA4E70000F80200202DE9F041CD
:103980000446002500F006FB074614B90120BDE8F7
:10399000F081606A00B100BF022084F8350000BFEA
:1039A000002084F8340000BF2068006820F0010087
:1039B000216808600AE000F0EDFAC01B052805D96F
:1039C00020206065032084F83500E0E72068006867
:1039D00000F001000028EED120680568214805406C
:1039E000D4E901010843E16808432169084361699A
:1039F0000843A1690843E1690843216A0843054374
:103A0000606A042803D1D4E90B0108430543206808
:103A100005602068456925F00705606A0543606A0E
:103A200004280DD1A06A0543E06A48B12046FEF79C
:103A30004BFB28B140206065012084F83500A6E7E3
:103A4000206845612046FEF725FB064694F85C1089
:103A50003F208840B06000206065012084F8350078
:103A6000002094E73F8010F02DE9F04704460D4612
:103A700016461F464FF00008D4F8589000BF94F83F
:103A80003400012802D10220BDE8F087012084F82B
:103A9000340000BF94F83500012825D1022084F8B5
:103AA0003500002060653B46324629462046FEF739
:103AB00060FB94F85C103F208840C9F8080020683B
:103AC000006840F0160021680860206C28B120686A
:103AD000006840F00800216808602068006840F035
:103AE00001002168086006E000BF002084F834006F
:103AF00000BF4FF002084046C6E7000070B504461C
:103B000000F048FA06462546681C10B104480078C3
:103B1000054400BF00F03EFA801BA842FAD370BDF6
:103B2000F40200202DE9F04104460E46012700254D
:103B300000BF2548007E012802D10220BDE8F081A7
:103B400001202149087600BF4CF25030FEF766FC98
:103B50000746002F31D1401E3060206801280FD168
:103B6000207C6168FEF79EFB4CF25030FEF756FC5D
:103B700007461648006820F00400144908601AE05F
:103B8000A56812E0217C2846FEF722FB4CF250305B
:103B9000FEF744FC07460D48006820F0FA000B4988
:103BA00008600FB1356005E06D1CD4E902100844CF
:103BB000A842E7D800BFFEF739FB00BF002002494A
:103BC000087600BF3846B9E77C470020103C024029
:103BD0000348006840F00040014908600020704739
:103BE000103C02402DE9F04106460F4614461D46A2
:103BF0004FF0010800BF1F48007E012802D10220BB
:103C0000BDE8F08101201B49087600BF4CF250301E
:103C1000FEF704FC8046B8F1000F23D126B9E1B2CB
:103C20003846FEF757FB12E0012E04D1A1B2384608
:103C3000FEF780FB0BE0022E04D121463846FEF74A
:103C40008DFB04E022462B463846FEF755FB4CF22E
:103C50005030FEF7E3FB80460748006820F0010083
:103C60000549086000BF00200249087600BF4046B1
:103C7000C6E700007C470020103C024000200949B4
:103C8000096801F0004159B10749064A0C3A116030
:103C9000064911600349096801F0004101B10120A2
:103CA00070470000103C024023016745AB89EFCD0F
:103CB00010B50446102C14D10B200CF07FFB2248C9
:103CC000007840F00100204908702048007840F05A
:103CD00001001E4908701E480078A0B30EF0F2FAE9
:103CE00031E0202C0ED10A200CF068FB1948007836
:103CF00040F00100174908701548007818B30EF01D
:103D0000E1FA20E0082C09D10C200CF057FB1248F6
:103D1000007840F001001049087014E0012C12D125
:103D200012F042F801280ED00C490D48006811F03D
:103D3000DFF90A48006830B120070A490860BFF37C
:103D40004F8FBFF36F8F10BD560100205701002029
:103D5000590100205501002058010020CC0100200D
:103D60003001002004ED00E010B50446044800686E
:103D7000204020B1024804602046FFF799FF10BDA3
:103D8000143C0140F8B502460B46002500240020F3
:103D90000021D6E0012606FA01F51E6806EA0504B0
:103DA000AC4274D11E7906F00306012E04D01E79B0
:103DB00006F00306022E13D190684F000326BE4082
:103DC000B0434F00DE68BE4030439060506801262B
:103DD0008E40B0431E79C6F300168E4030435060CB
:103DE0001E7906F00306032E09D0D0684F00032683
:103DF000BE40B0434F009E68BE403043D0601E7945
:103E000006F00306022E13D1CF0802F1200656F861
:103E100027004E07F70E0F26BE40B0434F07FF0E98
:103E20001E69BE403043CF0802F1200646F8270045
:103E300010684F000326BE40B0431E7906F003060B
:103E40004F00BE40304310605E6806F44036002EDE
:103E500076D000BF002600963C4E366846F4804679
:103E60003A4F3E603E46366806F48046009600BFF4
:103E700000BF374E8F0856F827008E07370F0F26E2
:103E8000BE40B043334EB24202D1002624E057E098
:103E9000314EB24201D101261EE0304EB24201D174
:103EA000022619E02E4EB24201D1032614E02D4E17
:103EB000B24201D104260FE02B4EB24201D10526B9
:103EC0000AE02A4EB24201D1062605E0284EB2424F
:103ED00001D1072600E008268F073F0FBE40304380
:103EE0001B4E8F0846F82700224E3068A0435E68BC
:103EF00006F4801606B120431E4E3060361D306831
:103F0000A0435E6806F4001606B12043194E361D24
:103F10003060184E361F3068A0435E6806F40036E5
:103F200006B12043134E361F3060361F3068A04361
:103F30005E6806F4803606B120430E4E083E3060BF
:103F4000491C1029FFF426AFF8BD00004438024098
:103F5000083801400000024000040240000802400E
:103F6000000C024000100240001402400018024001
:103F7000001C0240083C0140024613690B400BB193
:103F8000012000E0002070470AB1816101E00B04CC
:103F9000836170470148006870470000EC02002010
:103FA00070B504460CB9012070BD94F83D0028B9E5
:103FB000002084F83C00204600F006FB242084F812
:103FC0003D002068006820F001002168086020683A
:103FD000006840F40040216808602068006820F410
:103FE00000402168086001F049FD05465C496068B1
:103FF000884206D85B48854201D2012007E00020B4
:1040000005E05948854201D2012000E00020012846
:1040100000D1C9E75548B5FBF0F62068406820F0AC
:104020003F003043216848604D496068884201D8AC
:10403000701C07E04FF4967070434FF47A71B0FB38
:10404000F1F0401C2168096A21F03F010843216812
:10405000086243496068884214D8681E6168490054
:10406000B0FBF1F0401CC0F30B00042801D2042087
:104070003DE0681E61684900B0FBF1F0401CC0F3F0
:104080000B0034E0A06838B9681E616801EB41019B
:10409000B0FBF1F0401C0AE0681E616801EBC10250
:1040A00002EB0111B0FBF1F0401C40F48040C0F382
:1040B0000B0008B901201AE0A06848B9681E6168C1
:1040C00001EB4101B0FBF1F0401CC0F30B000CE030
:1040D000681E616801EBC10202EB0111B0FBF1F057
:1040E000401CC0F30B0040F4804040F400402168C5
:1040F000C9694CF6FF72914308432168C861D4E94D
:10410000070108432168096821F0C00108432168BC
:104110000860D4E9031008432168896848F2FF3237
:104120009143084321688860D4E905010843216868
:10413000C96821F0FF0108432168C8602068006851
:1041400040F001002168086000202064202084F8ED
:104150003D000020206384F83E0000BF24E70000FB
:10416000A086010080841E0000093D0040420F002F
:104170002DE9FC5F04460F4690469946DDE90CABFD
:104180000E9EFFF707FF054694F83D00202870D1EA
:1041900019230122B0492046009503F039FC10B1E3
:1041A0000220BDE8FC9F00BF94F83C00012801D12B
:1041B0000220F6E7012084F83C0000BF2068006878
:1041C00000F0010028B92068006840F00100216873
:1041D00008602068006820F40060216808602220E0
:1041E00084F83D00402084F83E0000202064C4F89C
:1041F00024A0A4F82AB0608D20859848E0624B4640
:10420000424639462046CDE9006503F0B3FA08B1CD
:104210000120C6E7208D88B900BF002001902068EA
:104220004069019020688069019000BF00BF20684C
:10423000006840F400702168086040E0208D01288B
:1042400018D12068006820F480602168086000BFF1
:1042500000200190206840690190206880690190E9
:1042600000BF00BF2068006840F40070216808604B
:1042700025E0EFE0208D022816D12068006820F4A8
:104280008060216808602068006840F40060216850
:10429000086000BF002001902068406901902068FC
:1042A0008069019000BF0AE000BF002001902068F3
:1042B0004069019020688069019000BF00BFBAE0AA
:1042C000208D03287ED8208D012815D12A4631461D
:1042D000204603F042FC08B1012062E72068006933
:1042E000616A0870606A401C6062208D401E2085F3
:1042F000608D401E60859EE0208D02282AD13346C5
:10430000002257492046009503F082FB08B10120A6
:1043100047E72068006840F4007021680860206862
:104320000069616A0870606A401C6062208D401EEE
:104330002085608D401E608520680069616A087074
:10434000606A401C6062208D401E2085608D401E8A
:10435000608570E03346002241492046009503F015
:1043600057FB08B101201CE72068006820F480603A
:104370002168086020680069616A0870606A401CF2
:104380006062208D401E2085608D401E6085334612
:10439000002233492046009503F03AFB08B1012082
:1043A000FFE62068006840F400702168086020681B
:1043B0000069616A0870606A401C6062208D401E5E
:1043C000208500E010E0608D401E60852068006957
:1043D000616A0870606A401C6062208D401E208502
:1043E000608D401E608526E02A463146204603F057
:1043F000B4FB08B10120D4E620680069616A087046
:10440000606A401C6062208D401E2085608D401EC9
:10441000608520684069C0F3800060B12068006951
:10442000616A0870606A401C6062208D401E2085B1
:10443000608D401E6085208D00287FF441AF2020D4
:1044400084F83D00002084F83E0000BF84F83C0062
:1044500000BFA6E60220A4E6020010000000FFFF55
:10446000040001002DE9FC5F04460F469046994682
:10447000DDE90CAB0E9EFFF78DFD054694F83D007F
:1044800020287DD1192301224D492046009503F0B3
:10449000BFFA10B10220BDE8FC9F00BF94F83C00B9
:1044A000012801D10220F6E7012084F83C0000BF7A
:1044B0002068006800F0010028B92068006840F01A
:1044C0000100216808602068006820F4006021680D
:1044D0000860212084F83D00402084F83E00002040
:1044E0002064C4F824A0A4F82AB0608D2085354843
:1044F000E0624B46424639462046CDE9006503F06E
:10450000E9F908B10120C6E731E02A4631462046E4
:1045100003F063FB50B1206C042805D120680068CB
:1045200040F40070216808600120B4E7606A0078F8
:1045300021680861606A401C6062208D401E2085F1
:10454000608D401E608520684069C0F3800070B1B6
:10455000208D60B1606A007821680861606A401C43
:104560006062208D401E2085608D401E6085208DFC
:104570000028CAD12A463146204603F01BFA00E043
:104580001CE050B1206C042805D12068006840F47C
:1045900000702168086001207DE72068006840F411
:1045A000007021680860202084F83D00002084F815
:1045B0003E0000BF84F83C0000BF6CE702206AE7C1
:1045C000020010000000FFFF10B586B00446142161
:1045D00001A8FBF717FF6F492068884230D100BF60
:1045E000002000906C48006840F002006A490860B2
:1045F0000846006800F00200009000BF00BF4FF4C2
:10460000407001901220029001200390032004903A
:104610000420059001A96148FFF7B4FB00BF00200A
:1046200000905D481030006840F400105A49103185
:1046300008600846006800F40010009000BFA6E083
:1046400057492068884250D100BF0020009052484E
:10465000006840F02000504908600846006800F0FB
:104660002000009000BF00BF0320019012200290A4
:1046700001200390032004900420059001A94948DB
:10468000FFF780FB00BF0020009043481030006817
:1046900040F480004049103108600846006800F48A
:1046A0008000009000BF00BF3F48404908604FF0C5
:1046B0006060486040213D4881600021C1604FF446
:1046C00080610161002141618161C1614FF400316C
:1046D000016200214162FFF751F908B1FDF774FD55
:1046E00000BF32486063846351E0314920688842EA
:1046F0004DD100BF002000902748006840F0040022
:10470000254908600846006800F00400009000BFDA
:1047100000BF00BF002000900846006840F0010084
:1047200008600846006800F00100009000BF00BF6C
:10473000481501901220029001200390032004905C
:104740000420059001A91B48FFF71CFB4FF4807063
:104750000190122002900120039003200490042075
:10476000059001A91448FFF70DFB00BF0020009041
:1047700009481030006840F4000007491031086013
:104780000846006800F40000009000BF00BF06B0BB
:1047900010BD0000005400403038024000040240C8
:1047A0000058004000140240B8600240A40C0020F1
:1047B000005C00400008024000000240034800681E
:1047C000034909780844014908607047EC02002059
:1047D000F402002010B50D48006840F400700B4949
:1047E00008600846006840F4806008600846006879
:1047F00040F480700860032000F0A8F80F2000F05B
:1048000007F800F02BF8002010BD0000003C02402B
:1048100070B504460E4800784FF47A71B1FBF0F0A1
:104820000C490968B1FBF0F5284601F010FF08B10A
:10483000012070BD102C07D200222146501E00F02E
:1048400047F80548046001E00120F2E70020F0E7A6
:10485000F4020020F8020020F002002008B500BF9A
:10486000002000901148006840F480400F49086023
:104870000846006800F48040009000BF00BF00BF01
:1048800000200090081F006840F08050091F086059
:104890000846006800F08050009000BF00BF002272
:1048A0000F21901E00F014F808BD000044380240AB
:1048B00001460846002809DB00F01F0301229A4048
:1048C00043099B0003F1E023C3F8002100BF7047B8
:1048D0002DE9F05F80460D461646002708F0EEFDF4
:1048E000074639462A46334601F00700C0F1070A59
:1048F000BAF1040F02D94FF0040A01E0C0F1070A2F
:10490000D14600F1040ABAF1070F02D24FF0000AB3
:1049100001E0A0F1030AD4464FF0010A0AFA09FAAD
:10492000AAF1010A0AEA020A0AFA0CFA4FF0010B8C
:104930000BFA0CFBABF1010B0BEA030B4AEA0B047D
:104940002146404608F0C2FDBDE8F09F00BF00F0E0
:104950000702064B19684FF6FF031940044B0B433F
:1049600043EA0221014B196000BF70470CED00E0E3
:104970000000FA0570470246106841620020704747
:10498000F0B5034615461868446A21B944EA054063
:104990001E68B06219E01868806A04EB10440022B7
:1049A00008E0186800F5827050F8220004EB10440B
:1049B000501CC2B2481E9042F3D844EA054718681A
:1049C00000F582704E1E40F826700020F0BD10B534
:1049D0000446D4F8080507F000F810BD70B5044689
:1049E0000D4605EBC50304F13C0101EB83010A69A7
:1049F0002946D4F8080506F0EBFE70BD70B50446F4
:104A00000D4605EBC50304F51F7101EB83010A692F
:104A10002946D4F8080506F05FFF70BD10B50446BE
:104A2000D4F8080506F0DCFF10BD2DE9F04104467E
:104A30000D4605F08000802808D105F00F0000EB3E
:104A4000C00104F13C0000EB810607E005F00F0017
:104A500000EBC00104F51F7000EB810631462068B1
:104A600008F0B0FA07463846BDE8F08170B5044654
:104A70000E4606F0800080280AD106F00F0000EBF9
:104A8000C00104F13C0000EB81050120687009E0E1
:104A900006F00F0000EBC00104F51F7000EB81056C
:104AA0000020687006F00F00287000BF94F8BC0466
:104AB000012801D1022070BD012084F8BC0400BF90
:104AC0002946206807F05EFD00BF002084F8BC0482
:104AD00000BF00BFEFE770B504460E4606F00F00BA
:104AE0006168884201D9012070BD06F080008028ED
:104AF0000AD106F00F0000EBC00104F13C0000EB0E
:104B000081050120687009E006F00F0000EBC0018C
:104B100004F51F7000EB8105002068700020A8706C
:104B200006F00F00287000BF94F8BC04012801D1E2
:104B30000220D9E7012084F8BC0400BF2946206880
:104B400008F008F800BF002084F8BC0400BF00BFD4
:104B5000CAE7024601F00F0000EBC00302F51F7028
:104B600000EB8300006A70472DE9F04705460E46CA
:104B700090461F464FF0000906F0800080280AD1B9
:104B800006F00F0000EBC00105F13C0000EB8104D2
:104B90000120607009E006F00F0000EBC00105F590
:104BA0001F7000EB81040020607006F00F00207081
:104BB000C4F80C802771607808B120782081022F1A
:104BC00001D10020607100BF95F8BC04012802D11A
:104BD0000220BDE8F087012085F8BC0400BF214613
:104BE000286807F0E5FB00BF002085F8BC0400BF83
:104BF0004846EEE72DE9F04104460E461746984632
:104C000006F00F0000EBC00104F51F7000EB8105FA
:104C10002F61C5F8188000202862687006F00F0028
:104C200028702069012800D16F6106F00F0028B9B3
:104C3000227C2946206807F067FE04E0227C294692
:104C4000206808F01BF80020BDE8F08170B504462C
:104C50000D4605F00F006168884201D9012070BD42
:104C600005F0800080280AD105F00F0000EBC0019C
:104C700004F13C0000EB81060120707007E005EBB9
:104C8000C50104F51F7000EB810600207070012043
:104C9000B07005F00F00307000BF94F8BC0401281C
:104CA00001D10220DBE7012084F8BC0400BF3146BB
:104CB000206807F096FF05F00F0028B9217C04F268
:104CC000C442206807F00EFF00BF002084F8BC0437
:104CD00000BF00BFC3E72DE9F04104460E4617466A
:104CE000984606F00F0000EBC00104F13C0000EB19
:104CF00081052F61C5F818800020286201206870A6
:104D000006F00F0028702069012800D16F6106F0BD
:104D10000F0028B9227C2946206807F0F5FD04E041
:104D2000227C2946206807F0A9FF0020BDE8F08119
:104D30002DE9FE4F0446D4F800B05E46206808F026
:104D400028FA002874D1206808F062FA08B9BDE892
:104D5000FE8F40F608008059C0F30D20C4F8FC0413
:104D6000206808F055FA00F00200022805D12068FA
:104D7000406900F0020021684861206808F048FAA4
:104D800000F01000102845D12068806920F0100044
:104D900021688861DBF8209009F00F0000EBC0016A
:104DA00004F51F7000EB810AC9F3434002281AD1B1
:104DB00047F6F07009EA000030B3C9F30A1258460A
:104DC000DAF8101008F029FAC9F30A11DAF810001D
:104DD0000844CAF81000C9F30A11DAF820000844A0
:104DE000CAF8200010E0C9F3434006280CD108227D
:104DF00004F2C441584608F010FAC9F30A11DAF86F
:104E000020000844CAF820002068806940F01000A3
:104E100021688861206808F0FBF900F40020B0F5F3
:104E2000002F7BD10025206808F0C2F9029072E0C3
:104E3000E1E2029800F00100002868D0E9B22068A1
:104E400008F0D9F9804608F0010048B1012106F5C3
:104E5000306000EB451081602946204604F09CF844
:104E600008F00800082809D1082106F5306000EB99
:104E7000451081602946204604F05CF808F01000D7
:104E8000102805D1102106F5306000EB4510816037
:104E900008F00200022824D1DBF8140000F08000A2
:104EA000802807D140F60400805940F4806140F624
:104EB0000400815105EBC50104F51F7000EB810A68
:104EC0009AF80300012806D100208AF80300E9B20D
:104ED000204600F09BFA022106F5306000EB4510F9
:104EE000816008F02000202805D1202106F53060DF
:104EF00000EB4510816008F40050B0F5005F06D16A
:104F00004FF4005106F5306000EB451081606D1CD8
:104F1000029840080290029800288AD1206808F080
:104F200077F900F48020B0F5802F7DD1206808F05B
:104F300035F9029000259AE0029800F0010000285F
:104F400073D0E9B2206808F03DF9804608F001000E
:104F5000F0B305F00F0101208840019040F63400C5
:104F60008159019821EA000040F63401885101215D
:104F700006F5106000EB451081602069012824D1FE
:104F800005EBC50104F13C0000EB810005EBC50217
:104F9000016904F13C0000EB8200C068014405EBAC
:104FA000C50204F13C0000EB820001616DB905EB24
:104FB000C50104F13C0000EB8100806928B904F2CE
:104FC000C4420121206807F08DFDE9B2204600E0CF
:104FD00001E0FFF703FD08F00800082805D10821CB
:104FE00006F5106000EB4510816008F010001028F5
:104FF00005D1102106F5106000EB4510816008F026
:105000004000402805D1402106F5106000EB451016
:10501000816008F0020002281DD12946584608F098
:1050200079F805EBC50101E025E01CE004F13C0046
:1050300000EB810A9AF80300012806D100208AF8C3
:105040000300E9B2204600F0D8F9022106F510600D
:1050500000EB4510816008F08000802803D12946CC
:10506000204604F03BF86D1C02984008029002981C
:1050700000287FF461AF206808F0CAF800F0004013
:10508000B0F1004F1CD140F60400805920F001011E
:1050900040F60400815194F8F404012807D100205F
:1050A00084F8F40400212046FFF764FC02E0204667
:1050B00000F0D4FA2068406900F00040216848619F
:1050C000206808F0A5F800F40060B0F5006F0ED17C
:1050D00040F60800805900F0010010B1204600F0B1
:1050E00015FB2068406900F4006021684861206871
:1050F00008F08EF800F48050B0F5805F7ED140F665
:105100000400805920F0010140F604008151102173
:10511000206807F0FFFF002732E04FF67F3106F5E9
:10512000106000EB4710816006F5106000EB47103F
:10513000006820F4001106F5106000EB47100160D4
:105140004FF67F3106F5306000EB4710816006F5C1
:10515000306000EB4710006820F4001106F5306065
:1051600000EB4710016006F5306000EB4710006867
:1051700040F0006106F5306000EB471001607F1CD5
:105180006068B842C9D840F61C00805940F001114F
:1051900040F61C008151206B70B1D6F8840840F0B5
:1051A0000B01C6F8841840F64400805940F00B010A
:1051B00040F6440081510FE040F61400805942F25D
:1051C0002B01084340F614018851081F805940F014
:1051D0000B014FF401608151D6F8000820F4FE6005
:1051E000C6F80008217C04F2C442206807F07AFC6B
:1051F0002068406900F48050216800E000E04861C8
:10520000206808F005F800F40050B0F5005F17D1F1
:10521000206807F035F9206807F0A8FFE06000F08B
:1052200027FC0090227B2068009908F079F820463E
:1052300000F0FCF92068406900F4005021684861E2
:10524000206807F0E5FF00F00800082808D1204694
:1052500000F00BFA2068406900F0080021684861FE
:10526000206807F0D5FF00F08000802818D1DBF817
:10527000180020F08000CBF8180001250DE005EBA8
:10528000C50104F51F7000EB8100C078012803D12F
:10529000E9B22046FFF7C9FB6D1C6068A842EED852
:1052A000206807F0B5FF00F48010B0F5801F2DD105
:1052B000012522E006F5106000EB4510D0F80090C3
:1052C00005EBC50104F13C0000EB810000790128E9
:1052D00012D109F00040B0F1004F0DD1012105EBD2
:1052E000C50204F13C0000EB8200C170E8B240F05E
:1052F00080012046FFF799FB6D1C6068A842D9D851
:105300002068406900F4801021684861206807F037
:105310007FFF00F40010B0F5001F44D1012538E0F4
:1053200006F5306000EB4510D0F8009005EBC501A4
:1053300004F51F7000EB81000079012828D109F0E5
:105340000040B0F1004F23D109F4803094F8FC14F0
:1053500001F0010188421BD1012105EBC50204F5D2
:105360001F7000EB8200C170DBF8180040F0800075
:10537000CBF81800DBF8140000F0800040B940F6CC
:105380000400805940F4007140F60400815103E0AC
:105390006D1C6068A842C3D800BF2068406900F453
:1053A000001021684861206807F032FF00F080405B
:1053B000B0F1804F08D12046FFF709FB2068406913
:1053C00000F0804021684861206807F021FF00F06C
:1053D000040004280FD12068D0F8049009F00400DC
:1053E000042802D12046FFF719FB2068406840EAF4
:1053F00009002168486000BFA9E470B504460D4665
:105400002946D4F8080506F057FB70BD70B5044670
:105410000D462946D4F8080506F072FB70BD70B53C
:105420008AB0044614B901200AB070BD266894F809
:10543000BD0428B9002084F8BC04204600F0A2F87E
:10544000032084F8BD04F06B00F4807008B90021DB
:105450002161206807F050FA282204F11001684603
:10546000FAF7B7FF94E80F0007F01EF820B102200A
:1054700084F8BD040120D7E70021206807F0FDFE75
:10548000002531E0012105EBC50204F13C0000EBF1
:105490008200417005EBC50104F13C0000F8215089
:1054A00005EBC50100EB81000581002105EBC5027C
:1054B00004F13C0000EB8200017105EBC50204F130
:1054C0003C0000EB8200C16005EBC50204F13C002A
:1054D00000EB8200016105EBC50204F13C0000EB2A
:1054E00082008161681CC5B26068A842CAD80025E4
:1054F0002AE0002105EBC50204F51F7000EB8200D5
:10550000417005EBC50104F51F7000F82150002122
:1055100005EBC50200EB8200017105EBC50204F545
:105520001F7000EB8200C16005EBC50204F51F701F
:1055300000EB8200016105EBC50204F51F7000EB72
:1055400082008161681CC5B26068A842D1D8282257
:1055500004F110016846FAF73CFF94E80F0007F0E9
:10556000DBF820B1022084F8BD0401205CE70020B4
:1055700084F83800012084F8BD04206807F0BAF8E8
:10558000002051E710B586B00446142101A8FAF7AF
:1055900039FF2068B0F1A04F42D100BF0020009039
:1055A0002048006840F001001E4908600846006875
:1055B00000F00100009000BF00BF4FF4C050019008
:1055C0000220029000200390032004900A200590FE
:1055D00001A91548FEF7D6FB00BF1248001D006860
:1055E00040F080000F49091D086000BF00200090B6
:1055F0000C481430006840F480400A4914310860B7
:105600000846006800F48040009000BF00BF00BF63
:10561000002205214320FFF75BF94320FFF748F9FB
:1056200006B010BD303802400000024070B504469C
:105630000125E06808B9002506E0E068022801D1EC
:10564000012501E0FCF7C0FD2946D4F8080506F065
:1056500000FBD4F8080506F0A7FA70BD10B50446A3
:10566000D4F8080506F0D6FA10BD10B50446D4F8F3
:10567000080506F0DAFA10BD70B504460D4600BF05
:1056800094F8BC04012801D1022070BD012084F8E7
:10569000BC0400BF84F838502946206807F021FE7A
:1056A00000BF002084F8BC0400BF00BFEDE710B5C8
:1056B000044604F2C441D4F8080506F0E1FA10BD2E
:1056C00070B50446256800BF94F8BC04012801D1D8
:1056D000022070BD012084F8BC0400BFA06A01282C
:1056E00006D1A069012803D0A86B40F48030A863DC
:1056F000206807F0DDFC206806F0EAFF00BF00200C
:1057000084F8BC0400BF00BFE3E7000010B5044606
:10571000D4F8080506F011FB2068D0F8000E40F020
:1057200001002168C1F8000E206A28B10348006812
:1057300040F006000149086010BD000010ED00E0D7
:10574000F8B5044600250026207800F0010020B9B5
:10575000207800F0040004282FD100205B498866DF
:10576000FEF718FC054606E0FEF714FC401B022875
:1057700001D90320F8BD56480068C0F3C060002876
:10578000F2D160688101207A41EA00705049843189
:10579000086001204D498866FEF7FCFB054606E0DF
:1057A000FEF7F8FB401B022801D90320E2E7484836
:1057B0000068C0F3C0600028F2D0207800F002003A
:1057C00002287DD100BF0020009041484030006891
:1057D00040F080503E49403108600846006800F0C3
:1057E0008050009000BF00BF3A48006840F48070CD
:1057F00038490860FEF7CEFB054606E0FEF7CAFB17
:10580000401B022801D90320B4E73248006800F4A5
:1058100080700028F2D02E487030006800F4407686
:105820004EB3A08900F44070B04224D028487030B4
:10583000006820F4407601202749086000200860B5
:10584000234870300660006800F0010098B1FEF750
:10585000A1FB054608E0FEF79DFB401B41F28831A5
:10586000884201D9032085E7194870300068C0F3E9
:1058700040000028EFD000BFA08900F44070B0F5D0
:10588000407F0CD112480830006820F4F810134A09
:10589000E168114008430E490831086007E00C48F0
:1058A0000830006820F4F8100949083108600848F9
:1058B00070300068A189C1F30B010843044900E07E
:1058C00002E07031086000BF002053E7000047424B
:1058D0000038024000700040400E4742FFFCFF0FBE
:1058E00070B504460D460CB9012070BD58480068DB
:1058F00000F00700A84209D255490D70084600681B
:1059000000F00700A84201D00120EEE7207800F067
:10591000020002281DD1207800F00400042805D1DF
:105920004C48006840F4E0504A490860207800F094
:105930000800082805D14748006840F46040454900
:1059400008604448006820F0F000A168084341491D
:105950000860207800F00100A8B36068012807D132
:105960003C4808380068C0F34040B8B90120BCE7A3
:105970006068022802D06068032807D135480838DB
:105980000068C0F3406048B90120AEE731480838EC
:105990000068C0F3400008B90120A6E72D48006860
:1059A00020F00300616808432A490860FEF7F2FA14
:1059B000064609E0FEF7EEFA801B41F28831884284
:1059C00002D9032091E707E02248006800F00C00AC
:1059D0006168B0EB810FEDD11D48006800F0070051
:1059E000A84209D91A490D700846006800F007005E
:1059F000A84201D0012078E7207800F004000428B4
:105A000007D11448006820F4E050E16808431149C8
:105A10000860207800F00800082808D10D480068C8
:105A200020F46040216940EAC1000A49086000F0A2
:105A300045F808490968C1F30311074A515CC84099
:105A40000649086006480068FEF7E2FE00204CE7C1
:105A5000003C024008380240F06A0108F8020020C9
:105A6000F002002001200149C8647047000047424D
:105A70000148006870470000F802002000B5FFF7F9
:105A8000F7FF04490968C1F38221034A515CC84009
:105A900000BD000008380240006B010800B5FFF7A8
:105AA000E7FF04490968C1F34231034A515CC84029
:105AB00000BD000008380240006B01082DE9F047E6
:105AC000002400250026A1462548006800F00C00AF
:105AD00020B1042805D008283AD105E0DFF88490E9
